{
  "contractName": "FlipDapp",
  "abi": [
    {
      "inputs": [],
      "payable": false,
      "stateMutability": "nonpayable",
      "type": "constructor"
    },
    {
      "anonymous": false,
      "inputs": [
        {
          "indexed": false,
          "internalType": "string",
          "name": "outcome",
          "type": "string"
        },
        {
          "indexed": false,
          "internalType": "uint256",
          "name": "bet",
          "type": "uint256"
        }
      ],
      "name": "lastGameOutcome",
      "type": "event"
    },
    {
      "constant": false,
      "inputs": [],
      "name": "initialDeposit",
      "outputs": [],
      "payable": true,
      "stateMutability": "payable",
      "type": "function"
    },
    {
      "constant": true,
      "inputs": [],
      "name": "getBalance",
      "outputs": [
        {
          "internalType": "uint256",
          "name": "",
          "type": "uint256"
        }
      ],
      "payable": false,
      "stateMutability": "view",
      "type": "function"
    },
    {
      "constant": true,
      "inputs": [
        {
          "internalType": "address",
          "name": "player",
          "type": "address"
        }
      ],
      "name": "getLastFlip",
      "outputs": [
        {
          "internalType": "bool",
          "name": "",
          "type": "bool"
        }
      ],
      "payable": false,
      "stateMutability": "view",
      "type": "function"
    },
    {
      "constant": false,
      "inputs": [],
      "name": "flip",
      "outputs": [],
      "payable": true,
      "stateMutability": "payable",
      "type": "function"
    }
  ],
  "bytecode": "0x608060405234801561001057600080fd5b50336000806101000a81548173ffffffffffffffffffffffffffffffffffffffff021916908373ffffffffffffffffffffffffffffffffffffffff160217905550610485806100606000396000f3fe60806040526004361061003f5760003560e01c806312065fe0146100445780631e6d56731461006f578063cde4efa9146100d8578063e037f889146100e2575b600080fd5b34801561005057600080fd5b506100596100ec565b6040518082815260200191505060405180910390f35b34801561007b57600080fd5b506100be6004803603602081101561009257600080fd5b81019080803573ffffffffffffffffffffffffffffffffffffffff16906020019092919050505061010b565b604051808215151515815260200191505060405180910390f35b6100e0610161565b005b6100ea61044e565b005b60003073ffffffffffffffffffffffffffffffffffffffff1631905090565b6000600160008373ffffffffffffffffffffffffffffffffffffffff1673ffffffffffffffffffffffffffffffffffffffff16815260200190815260200160002060009054906101000a900460ff169050919050565b671bc16d674ec800003411156101df576040517f08c379a00000000000000000000000000000000000000000000000000000000081526004018080602001828103825260138152602001807f426574206d7573742062652062656c6f7720320000000000000000000000000081525060200191505060405180910390fd5b6000429050600034905060606040518060400160405280600181526020017f6100000000000000000000000000000000000000000000000000000000000000815250905060006002848161022f57fe5b061415610314573373ffffffffffffffffffffffffffffffffffffffff166108fc600284029081150290604051600060405180830381858888f1935050505015801561027f573d6000803e3d6000fd5b5060018060003373ffffffffffffffffffffffffffffffffffffffff1673ffffffffffffffffffffffffffffffffffffffff16815260200190815260200160002060006101000a81548160ff0219169083151502179055506040518060400160405280600381526020017f77696e000000000000000000000000000000000000000000000000000000000081525090506103a5565b6000600160003373ffffffffffffffffffffffffffffffffffffffff1673ffffffffffffffffffffffffffffffffffffffff16815260200190815260200160002060006101000a81548160ff0219169083151502179055506040518060400160405280600481526020017f6c6f73650000000000000000000000000000000000000000000000000000000081525090505b7f5c776cbcdd0d6bfec71741e1b037b5f51c04a269b6436112117c8acccd96092181836040518080602001838152602001828103825284818151815260200191508051906020019080838360005b8381101561040e5780820151818401526020810190506103f3565b50505050905090810190601f16801561043b5780820380516001836020036101000a031916815260200191505b50935050505060405180910390a1505050565b56fea265627a7a72315820897bf37b9a8780ca3512d90bf2270a704c3fdbd52114fb672541d5d4904af0cd64736f6c634300050c0032",
  "source": "pragma solidity 0.5.12;\n\ncontract FlipDapp {\n  address owner;\n  // map that stores last flip result for a given address\n  mapping(address => bool) lastFlip;\n\n\n  constructor() public{\n    owner = msg.sender;\n  }\n\n  // event\n\n  event lastGameOutcome(string outcome, uint bet);\n\n  // function that recevies initial deposit of contrat to have cash to initiate\n  // game\n\n  function initialDeposit() payable public {\n  }\n\n\n  // function that get balance of contract address\n  function getBalance()  public view returns (uint){\n    return  address(this).balance;\n  }\n\n  // function that gets the last flip result for a given address\n  function getLastFlip(address player)  public view returns (bool){\n    return lastFlip[player];\n  }\n\n  // function that actually performs the flip\n  function flip() payable public{\n    require(msg.value <= 2000000000000000000, \"Bet must be below 2\");\n    uint time = block.timestamp;\n    uint bet = msg.value;\n    string memory outcome='a';\n\n\n    if(time % 2 == 0){\n      msg.sender.transfer(bet*2);\n      lastFlip[msg.sender] = true;\n      outcome =\"win\";\n    }\n    else{\n      lastFlip[msg.sender] = false;\n      outcome = \"lose\";\n    }\n    emit lastGameOutcome(outcome,bet);\n  }\n\n}\n",
  "sourcePath": "/Users/franciscotorresayala/github/CoinFlipDapp/contracts/FlipDapp.sol",
  "compiler": {
    "name": "solc",
    "version": "0.5.12+commit.7709ece9.Emscripten.clang"
  },
  "schemaVersion": "3.0.16",
  "updatedAt": "2021-06-22T22:23:32.610Z",
  "devdoc": {
    "methods": {}
  },
  "userdoc": {
    "methods": {}
  }
}