{
  "contractName": "FlipDapp",
  "abi": [
    {
      "inputs": [],
      "payable": false,
      "stateMutability": "nonpayable",
      "type": "constructor"
    },
    {
      "anonymous": false,
      "inputs": [
        {
          "indexed": false,
          "internalType": "string",
          "name": "outcome",
          "type": "string"
        },
        {
          "indexed": false,
          "internalType": "uint256",
          "name": "bet",
          "type": "uint256"
        }
      ],
      "name": "lastGameOutcome",
      "type": "event"
    },
    {
      "constant": false,
      "inputs": [],
      "name": "initialDeposit",
      "outputs": [],
      "payable": true,
      "stateMutability": "payable",
      "type": "function"
    },
    {
      "constant": true,
      "inputs": [],
      "name": "getBalance",
      "outputs": [
        {
          "internalType": "uint256",
          "name": "",
          "type": "uint256"
        }
      ],
      "payable": false,
      "stateMutability": "view",
      "type": "function"
    },
    {
      "constant": true,
      "inputs": [
        {
          "internalType": "address",
          "name": "player",
          "type": "address"
        }
      ],
      "name": "getLastFlip",
      "outputs": [
        {
          "internalType": "bool",
          "name": "",
          "type": "bool"
        }
      ],
      "payable": false,
      "stateMutability": "view",
      "type": "function"
    },
    {
      "constant": true,
      "inputs": [
        {
          "internalType": "uint256",
          "name": "x",
          "type": "uint256"
        }
      ],
      "name": "tentMap",
      "outputs": [
        {
          "internalType": "uint256",
          "name": "result",
          "type": "uint256"
        }
      ],
      "payable": false,
      "stateMutability": "pure",
      "type": "function"
    },
    {
      "constant": true,
      "inputs": [
        {
          "internalType": "uint256",
          "name": "x",
          "type": "uint256"
        }
      ],
      "name": "Sum",
      "outputs": [
        {
          "internalType": "uint256",
          "name": "result",
          "type": "uint256"
        }
      ],
      "payable": false,
      "stateMutability": "pure",
      "type": "function"
    },
    {
      "constant": true,
      "inputs": [],
      "name": "getResult",
      "outputs": [
        {
          "internalType": "uint256",
          "name": "product",
          "type": "uint256"
        },
        {
          "internalType": "uint256",
          "name": "sum",
          "type": "uint256"
        }
      ],
      "payable": false,
      "stateMutability": "pure",
      "type": "function"
    },
    {
      "constant": false,
      "inputs": [],
      "name": "flip",
      "outputs": [],
      "payable": true,
      "stateMutability": "payable",
      "type": "function"
    }
  ],
  "bytecode": "0x608060405234801561001057600080fd5b50336000806101000a81548173ffffffffffffffffffffffffffffffffffffffff021916908373ffffffffffffffffffffffffffffffffffffffff1602179055506105ee806100606000396000f3fe6080604052600436106100705760003560e01c8063cde4efa91161004e578063cde4efa914610158578063d06c19f414610162578063de292789146101b1578063e037f889146101e357610070565b806312065fe0146100755780631e6d5673146100a0578063be8396be14610109575b600080fd5b34801561008157600080fd5b5061008a6101ed565b6040518082815260200191505060405180910390f35b3480156100ac57600080fd5b506100ef600480360360208110156100c357600080fd5b81019080803573ffffffffffffffffffffffffffffffffffffffff16906020019092919050505061020c565b604051808215151515815260200191505060405180910390f35b34801561011557600080fd5b506101426004803603602081101561012c57600080fd5b8101908080359060200190929190505050610262565b6040518082815260200191505060405180910390f35b61016061026f565b005b34801561016e57600080fd5b5061019b6004803603602081101561018557600080fd5b810190808035906020019092919050505061055c565b6040518082815260200191505060405180910390f35b3480156101bd57600080fd5b506101c661058e565b604051808381526020018281526020019250505060405180910390f35b6101eb6105b7565b005b60003073ffffffffffffffffffffffffffffffffffffffff1631905090565b6000600160008373ffffffffffffffffffffffffffffffffffffffff1673ffffffffffffffffffffffffffffffffffffffff16815260200190815260200160002060009054906101000a900460ff169050919050565b6000816001019050919050565b671bc16d674ec800003411156102ed576040517f08c379a00000000000000000000000000000000000000000000000000000000081526004018080602001828103825260138152602001807f426574206d7573742062652062656c6f7720320000000000000000000000000081525060200191505060405180910390fd5b6000429050600034905060606040518060400160405280600181526020017f6100000000000000000000000000000000000000000000000000000000000000815250905060006002848161033d57fe5b061415610422573373ffffffffffffffffffffffffffffffffffffffff166108fc600284029081150290604051600060405180830381858888f1935050505015801561038d573d6000803e3d6000fd5b5060018060003373ffffffffffffffffffffffffffffffffffffffff1673ffffffffffffffffffffffffffffffffffffffff16815260200190815260200160002060006101000a81548160ff0219169083151502179055506040518060400160405280600381526020017f77696e000000000000000000000000000000000000000000000000000000000081525090506104b3565b6000600160003373ffffffffffffffffffffffffffffffffffffffff1673ffffffffffffffffffffffffffffffffffffffff16815260200190815260200160002060006101000a81548160ff0219169083151502179055506040518060400160405280600481526020017f6c6f73650000000000000000000000000000000000000000000000000000000081525090505b7f5c776cbcdd0d6bfec71741e1b037b5f51c04a269b6436112117c8acccd96092181836040518080602001838152602001828103825284818151815260200191508051906020019080838360005b8381101561051c578082015181840152602081019050610501565b50505050905090810190601f1680156105495780820380516001836020036101000a031916815260200191505b50935050505060405180910390a1505050565b6000606182111561056c57600080fd5b6030821161057f57816002029050610589565b8160610360020290505b919050565b600080600060019050600060029050808202935080820192508082028183019350935050509091565b56fea265627a7a723158204e881dac5725372ffade317089eadbd6e9b306b1cbdfbedf191e1371889cd40364736f6c634300050c0032",
  "source": "pragma solidity 0.5.12;\n\ncontract FlipDapp {\n  address owner;\n  // map that stores last flip result for a given address\n  mapping(address => bool) lastFlip;\n\n\n  constructor() public{\n    owner = msg.sender;\n  }\n\n  // event\n\n  event lastGameOutcome(string outcome, uint bet);\n\n  // function that recevies initial deposit of contrat to have cash to initiate\n  // game\n\n  function initialDeposit() payable public {\n  }\n\n\n  // function that get balance of contract address\n  function getBalance()  public view returns (uint){\n    return  address(this).balance;\n  }\n\n  // function that gets the last flip result for a given address\n  function getLastFlip(address player)  public view returns (bool){\n    return lastFlip[player];\n  }\n\n\n// tent map\n\n  function tentMap(uint x) public pure returns (uint result){\n    require(x <= 97);\n    if( x <=  48){\n      result= 2*x;\n    }\n    else{\n      result = 2*(97-x);\n    }\n  }\n\n  function Sum(uint x) public pure returns (uint result){\n    result=1+x;\n  }\n\n\n  function getResult() public pure returns(uint product, uint sum){\n        uint a = 1; // local variable\n        uint b = 2;\n        product = a * b;\n        sum = a + b;\n\n        //alternative return statement to return\n        //multiple values\n        return(a*b, a+b);\n     }\n\n// function that actually performs the flip\n  function flip() payable public{\n    require(msg.value <= 2000000000000000000, \"Bet must be below 2\");\n    uint time = block.timestamp;\n    uint bet = msg.value;\n    string memory outcome='a';\n\n\n\n    if(time % 2 == 0){\n      msg.sender.transfer(bet*2);\n      lastFlip[msg.sender] = true;\n      outcome =\"win\";\n    }\n    else{\n      lastFlip[msg.sender] = false;\n      outcome = \"lose\";\n    }\n    emit lastGameOutcome(outcome,bet);\n  }\n}\n",
  "sourcePath": "/Users/franciscotorresayala/github/CoinFlipDapp/contracts/FlipDapp.sol",
  "compiler": {
    "name": "solc",
    "version": "0.5.12+commit.7709ece9.Emscripten.clang"
  },
  "schemaVersion": "3.0.16",
  "updatedAt": "2021-06-23T22:00:47.010Z",
  "devdoc": {
    "methods": {}
  },
  "userdoc": {
    "methods": {}
  }
}