{
  "contractName": "FlipDapp",
  "abi": [
    {
      "inputs": [],
      "payable": false,
      "stateMutability": "nonpayable",
      "type": "constructor"
    },
    {
      "anonymous": false,
      "inputs": [
        {
          "indexed": false,
          "internalType": "string",
          "name": "outcome",
          "type": "string"
        },
        {
          "indexed": false,
          "internalType": "uint256",
          "name": "bet",
          "type": "uint256"
        }
      ],
      "name": "lastGameOutcome",
      "type": "event"
    },
    {
      "constant": false,
      "inputs": [],
      "name": "initialDeposit",
      "outputs": [],
      "payable": true,
      "stateMutability": "payable",
      "type": "function"
    },
    {
      "constant": true,
      "inputs": [],
      "name": "getBalance",
      "outputs": [
        {
          "internalType": "uint256",
          "name": "",
          "type": "uint256"
        }
      ],
      "payable": false,
      "stateMutability": "view",
      "type": "function"
    },
    {
      "constant": true,
      "inputs": [
        {
          "internalType": "address",
          "name": "player",
          "type": "address"
        }
      ],
      "name": "getLastFlip",
      "outputs": [
        {
          "internalType": "bool",
          "name": "",
          "type": "bool"
        }
      ],
      "payable": false,
      "stateMutability": "view",
      "type": "function"
    },
    {
      "constant": true,
      "inputs": [
        {
          "internalType": "uint256",
          "name": "x",
          "type": "uint256"
        }
      ],
      "name": "tentMap",
      "outputs": [
        {
          "internalType": "uint256",
          "name": "result",
          "type": "uint256"
        }
      ],
      "payable": false,
      "stateMutability": "pure",
      "type": "function"
    },
    {
      "constant": true,
      "inputs": [
        {
          "internalType": "uint256",
          "name": "_initialValue",
          "type": "uint256"
        },
        {
          "internalType": "uint256",
          "name": "_lenght",
          "type": "uint256"
        }
      ],
      "name": "interationTentMap",
      "outputs": [
        {
          "internalType": "uint256",
          "name": "result",
          "type": "uint256"
        }
      ],
      "payable": false,
      "stateMutability": "pure",
      "type": "function"
    },
    {
      "constant": false,
      "inputs": [],
      "name": "flip",
      "outputs": [],
      "payable": true,
      "stateMutability": "payable",
      "type": "function"
    }
  ],
  "bytecode": "0x608060405234801561001057600080fd5b50336000806101000a81548173ffffffffffffffffffffffffffffffffffffffff021916908373ffffffffffffffffffffffffffffffffffffffff160217905550610593806100606000396000f3fe6080604052600436106100555760003560e01c806312065fe01461005a5780631e6d5673146100855780632aef6cc5146100ee578063cde4efa914610147578063d06c19f414610151578063e037f889146101a0575b600080fd5b34801561006657600080fd5b5061006f6101aa565b6040518082815260200191505060405180910390f35b34801561009157600080fd5b506100d4600480360360208110156100a857600080fd5b81019080803573ffffffffffffffffffffffffffffffffffffffff1690602001909291905050506101c9565b604051808215151515815260200191505060405180910390f35b3480156100fa57600080fd5b506101316004803603604081101561011157600080fd5b81019080803590602001909291908035906020019092919050505061021f565b6040518082815260200191505060405180910390f35b61014f610259565b005b34801561015d57600080fd5b5061018a6004803603602081101561017457600080fd5b810190808035906020019092919050505061052a565b6040518082815260200191505060405180910390f35b6101a861055c565b005b60003073ffffffffffffffffffffffffffffffffffffffff1631905090565b6000600160008373ffffffffffffffffffffffffffffffffffffffff1673ffffffffffffffffffffffffffffffffffffffff16815260200190815260200160002060009054906101000a900460ff169050919050565b60008083905060008090505b8381101561024b5761023c8261052a565b9150808060010191505061022b565b508091508191505092915050565b671bc16d674ec800003411156102d7576040517f08c379a00000000000000000000000000000000000000000000000000000000081526004018080602001828103825260138152602001807f426574206d7573742062652062656c6f7720320000000000000000000000000081525060200191505060405180910390fd5b60004290506000349050606060006103076061858501816102f457fe5b0660658686018161030157fe5b0661021f565b9050603081116103ef573373ffffffffffffffffffffffffffffffffffffffff166108fc600285029081150290604051600060405180830381858888f1935050505015801561035a573d6000803e3d6000fd5b5060018060003373ffffffffffffffffffffffffffffffffffffffff1673ffffffffffffffffffffffffffffffffffffffff16815260200190815260200160002060006101000a81548160ff0219169083151502179055506040518060400160405280600381526020017f77696e00000000000000000000000000000000000000000000000000000000008152509150610480565b6000600160003373ffffffffffffffffffffffffffffffffffffffff1673ffffffffffffffffffffffffffffffffffffffff16815260200190815260200160002060006101000a81548160ff0219169083151502179055506040518060400160405280600481526020017f6c6f73650000000000000000000000000000000000000000000000000000000081525091505b7f5c776cbcdd0d6bfec71741e1b037b5f51c04a269b6436112117c8acccd96092182846040518080602001838152602001828103825284818151815260200191508051906020019080838360005b838110156104e95780820151818401526020810190506104ce565b50505050905090810190601f1680156105165780820380516001836020036101000a031916815260200191505b50935050505060405180910390a150505050565b6000606182111561053a57600080fd5b6030821161054d57816002029050610557565b8160610360020290505b919050565b56fea265627a7a72315820904406bbfc3c146cf21e1d3008e57ad871cf8a3dc87a3399c30e6f4bee4326cc64736f6c634300050c0032",
  "source": "pragma solidity 0.5.12;\n\ncontract FlipDapp {\n  address owner;\n  // map that stores last flip result for a given address\n  mapping(address => bool) lastFlip;\n\n\n  constructor() public{\n    owner = msg.sender;\n  }\n\n  // event\n\n  event lastGameOutcome(string outcome, uint bet);\n\n  // function that recevies initial deposit of contrat to have cash to initiate\n  // game\n\n  function initialDeposit() payable public {\n  }\n\n\n  // function that get balance of contract address\n  function getBalance()  public view returns (uint){\n    return  address(this).balance;\n  }\n\n  // function that gets the last flip result for a given address\n  function getLastFlip(address player)  public view returns (bool){\n    return lastFlip[player];\n  }\n\n\n// tent map\n\n  function tentMap(uint x) public pure returns (uint result){\n    require(x <= 97);\n    if( x <=  48){\n      result= 2*x;\n    }\n    else{\n      result = 2*(97-x);\n    }\n  }\n\n// iterations for tent Map\n function interationTentMap(uint _initialValue, uint _lenght) public pure returns (uint result){\n     uint y=_initialValue;\n     for(uint i=0; i < _lenght ; i++){\n     y=tentMap(y);\n     }\n     result = y;\n     return result;\n }\n\n\n\n// function that actually performs the flip\n  function flip() payable public{\n    require(msg.value <= 2000000000000000000, \"Bet must be below 2\");\n    uint time = block.timestamp;\n    uint bet = msg.value;\n    string memory outcome;\n    uint z=interationTentMap((bet+time)% 97 , (bet + time) % 101);\n\n    if(z <= 48){\n      msg.sender.transfer(bet*2);\n      lastFlip[msg.sender] = true;\n      outcome =\"win\";\n    }\n    else{\n      lastFlip[msg.sender] = false;\n      outcome = \"lose\";\n    }\n    emit lastGameOutcome(outcome,bet);\n  }\n}\n",
  "sourcePath": "/Users/franciscotorresayala/github/CoinFlipDapp/contracts/FlipDapp.sol",
  "compiler": {
    "name": "solc",
    "version": "0.5.12+commit.7709ece9.Emscripten.clang"
  },
  "schemaVersion": "3.0.16",
  "updatedAt": "2021-07-02T16:49:40.544Z",
  "devdoc": {
    "methods": {}
  },
  "userdoc": {
    "methods": {}
  }
}